:100000000C94E2050C94FF050C94FF050C94892FC9
:100010000C94FF050C94FF050C94FF050C94FF0550
:100020000C94FF050C94FF050C944F2C0C94272D79
:100030000C942D160C94FF050C94FF050C94FF05F1
:100040000C94FF050C94FF050C94FF050C94FF0520
:100050000C94FF050C942B2C0C94FF050C94FF05BD
:100060000C94FF050C94FF050C94FF050C94FF0500
:100070000C94FF050C94FF050C94FF050C94FF05F0
:100080000C94FF050C94FF050C94FF050C94FF05E0
:100090000C94FF050C94FF050C94FF050C94FF05D0
:1000A0000C94FF050C94FF050C94FF0500AF00AE07
:1000B0000000000000003E5B4F5B3E003E6B4F6B5C
:1000C0003E001C3E7C3E1C00183C7E3C18001C5729
:1000D0007D571C001C5E7F5E1C0000183C18000051
:1000E000FFE7C3E7FF00001824180000FFE7DBE785
:1000F000FF0030483A060E00262979292600407F65
:1001000005050700407F05253F005A3CE73C5A00A3
:100110007F3E1C1C0800081C1C3E7F0014227F220E
:1001200014005F5F005F5F0006097F017F000066CB
:1001300089956A0060606060600094A2FFA29400EC
:1001400008047E04080010207E20100008082A1CE5
:100150000800081C2A0808001E10101010000C1EB1
:100160000C1E0C0030383E383000060E3E0E0600E5
:1001700000000000000000005F0000000007000712
:100180000000147F147F1400242A7F2A12002313F6
:10019000086462003649562050000008070300003A
:1001A000001C224100000041221C00002A1C7F1C70
:1001B0002A0008083E080800008070300000080887
:1001C0000808080000006060000020100804020019
:1001D0003E5149453E0000427F4000007249494976
:1001E00046002141494D33001814127F1000274565
:1001F000454539003C4A4949310041211109070070
:10020000364949493600464949291E000000140074
:1002100000000040340000000008142241001414C3
:1002200014141400004122140800020159090600A8
:100230003E415D594E007C1211127C007F494949B4
:1002400036003E41414122007F4141413E007F490D
:10025000494941007F09090901003E4141517300AC
:100260007F0808087F0000417F4100002040413F97
:1002700001007F08142241007F40404040007F027F
:100280001C027F007F0408107F003E4141413E0078
:100290007F09090906003E4151215E007F091929A5
:1002A000460026494949320003017F0103003F40CF
:1002B00040403F001F2040201F003F4038403F008B
:1002C0006314081463000304780403006159494D62
:1002D0004300007F4141410002040810200000411A
:1002E00041417F00040201020400404040404000C0
:1002F0000003070800002054547840007F2844443D
:100300003800384444442800384444287F00385496
:100310005454180000087E0902001824241C780098
:100320007F080404780000447D4000002040403DE8
:1003300000007F102844000000417F4000007C0442
:10034000780478007C080404780038444444380079
:100350007C1824241800182424187C007C08040429
:10036000080048545454240004043F4424003C40F2
:1003700040207C001C2040201C003C4030403C00C1
:100380004428102844004C9090907C004464544CC5
:1003900044000008364100000000770000000041E2
:1003A000360800000201020402003C2623263C001D
:1003B000000000000000000000000000000000003D
:1003C000C0E0F0F8F81800C0F0FCFEFFFFFFFFFFF0
:1003D000FFFF7E00000000000000000080C0E0E0A1
:1003E000E0E0E0E0E0E0C0800000000080C0E0E08D
:1003F000E0E0E0E0E0E0C080000000E0E0C0C0E05D
:10040000E0E0E00000E0E0C0C0E0E0E0E0E0C0806C
:100410000000000080C0E0E0E0E0E0E0E0E0C0805C
:100420000000000000000000000000000000E0F0FC
:10043000F0F0E0ECEEF7F37020007C7C7C7E007E38
:100440007E7E7F7F7F000080C0E07E5B4F5BFEC0D2
:100450000000C000DCD7DEDEDED7DC00C00000001C
:10046000000000000000000000000000000000008C
:10047000000000000000000000F8FCFEFFE000FFAC
:10048000FFFFFFFFFF80FFFFFFFFFFFFFFFFFF1FDB
:100490000701000000000000000000FFFFFF8100D6
:1004A000000000000081C3C3C30000FFFFFF810004
:1004B000000000000081FFFFFF0000FFFFFF0100C0
:1004C0000000000000FFFFFF010000000001FFFF2F
:1004D000FF0000FFFFFF9D1C1C1C1C1C1C9DDFDF80
:1004E000DF000000000000000000000000000F1FFF
:1004F0003F7F7F7F7F7F3F1E0C001F1F1F3F003FFE
:100500003F3F7F7F7F00307B7F7830202030787FB7
:100510003B0003000F7F0F0F0F7F0F000300000051
:1005200000000000000000000000000000000000CB
:10053000000000000000000000030F1F3F3F3F3F8E
:100540001F1F3F3F7F7F7F3F3F1F3F7F7F7F7F7C1E
:100550007878381C0F000000000000000103070736
:10056000070707070707030100000000010307074B
:100570000707070707070301000000070707000038
:100580000000000000070707000000000000070748
:100590000700000001030707070707070707030114
:1005A000000000000000000000000000000000004B
:1005B000000000000000000000000000000000003B
:1005C000000000000000000000000000000000002B
:1005D000000000000000000000000000000000001B
:1005E000000000000000000000000000000000000B
:1005F00005010902A10185020901A10005091901EE
:1006000029081500250195087501810205010930A9
:1006100009311581257F95027508810609381581F4
:10062000257F950175088106050C0A38021581257C
:100630007F950175088106C0C005010980A101856B
:100640000319012AB700150126B70095017510811D
:1006500000C0050C0901A101850419012AA0021599
:100660000126A002950175108100C005010906A1AF
:10067000018506050719E029E7150025019508758C
:100680000181020507190029EF1500250195F07574
:100690000181020508190129059505750191029549
:1006A0000175039101C005010906A101050719E0C3
:1006B00029E7150025019508750181029501750846
:1006C00081010507190029FF150026FF0095067511
:1006D00008810005081901290515002501950575F2
:1006E000019102950175039101C009023B000201CD
:1006F00000A0FA0904000001030101000921110111
:1007000000012244000705810308000109040100DB
:10071000010300000009211101000122B6000705B4
:10072000820320000112010002000000085346016C
:10073000000100010200010C0343006F0072006E13
:100740000065000000100366006F006F0073007406
:100750000061006E000000040309042223252628FE
:10076000292A2C2D2F3032333536383A3B3D3E4046
:1007700042434547494A4C4E5051535557595A5C8C
:100780005E6062646668696B6D6F71737577797BA3
:100790007D7F81838587898A8C8E90929496989AA2
:1007A0009C9E9FA1A3A5A7A8AAACAEAFB1B3B4B6B7
:1007B000B8B9BBBCBEBFC1C2C3C5C6C7C9CACBCC12
:1007C000CDCED0D1D2D2D3D4D5D6D7D7D8D9D9DAE5
:1007D000DADBDBDBDCDCDCDCDCDDDDDDDDDCDCDC5A
:1007E000DCDCDBDBDBDADAD9D9D8D7D7D6D5D4D382
:1007F000D2D2D1D0CECDCCCBCAC9C7C6C5C3C2C157
:10080000BFBEBCBBB9B8B6B4B3B1AFAEACAAA8A7B3
:10081000A5A3A19F9E9C9A98969492908E8C8A896B
:10082000878583817F7D7B79777573716F6D6B6948
:1008300068666462605E5C5A5957555351504E4C1D
:100840004A4947454342403E3D3B3A3836353332CC
:10085000302F2D2C2A292826252322FFAA7F554018
:100860000001010101010101010102020202020273
:100870000202020303030303030303040404040446
:10088000040405050505050606060606070707070D
:100890000708080808090909090A0A0A0B0B0B0CC2
:1008A0000C0C0D0D0D0E0E0E0F0F0F10101111115F
:1008B00012121313141415151616171718181919E0
:1008C0001A1A1B1B1C1D1D1E1E1F20202122222345
:1008D0002424252626272829292A2B2C2D2D2E2F86
:1008E00030313232333435363738393A3B3C3D3E9D
:1008F0003F404142434445464748494A4C4D4E4F8C
:1009000050515354555658595A5B5D5E5F6162644D
:10091000656668696B6C6D6F7072737577787A7BDA
:100920007D7E8082838587888A8C8E8F9193959631
:10093000989A9C9EA0A2A3A5A7A9ABADAFB1B3B551
:10094000B7BABCBEC0C2C4C6C9CBCDCFD1D4D6D82D
:10095000DBDDDFE2E4E7E9EBEEF0F3F5F8FAFDFFCB
:1009600000DA0281FFD9F1DB20A4A62EAF00A0C0DF
:10097000D30000A1C8D30000AED580A81F408D14BD
:1009800020001E0F0500047F3F1F643214643214E0
:10099000783C1E1E140A05808182838485868788A0
:1009A000898A8B8C8D8E8F9091929394A0A1A2A313
:1009B000A4A5A6A7A8A9AAABACADAEAFB0B1B2B37F
:1009C000B4C0C1C2C3C4C5C6C7C8C9CACBCCCDCECA
:1009D000CFD0D1D2D3D4003A002C206B0078005570
:1009E0006E6465660041646A757374005261697370
:1009F00065004C6F7765720044656661756C7400C4
:100A00004C617965723A20002B0014001A0008002E
:100A100015001700E10004001600070009000A0095
:100A2000E0001D001B00060019000500000000008A
:100A30000000E20021522C002A00130012000C00DA
:100A400018001C00340033000F000E000D000B00D6
:100A500029003800370036001000110000000000A7
:100A60000000E300225228002B001E001F0020007F
:100A700021002200E1003B003C003D003E0042001E
:100A8000E0000000000043004400450000000000BA
:100A90000000E20001002C002A00270026002500AB
:100AA00024002300000000004F00520051005000BD
:100AB000000064004D004C0049004A0000000000A6
:100AC0000000E300235228002B001E021F02200218
:100AD00021022202290000000000000000000000A6
:100AE000E000E10000000000000000000000000045
:100AF0000000E20023522C002A00270226022502D1
:100B0000240223023500310030002F002E002D007A
:100B10003502310230022F022E022D0200000000A9
:100B20000000E30001002800007C0000000000003D
:100B30000000000020782378257827780000000046
:100B40002178247826782878000000000000000032
:100B50000000E60001002C00000000000000000082
:100B60000000000000000000000000000000000085
:100B70000000000000000000000000000000000075
:100B80000000E3000100280020202020616263644F
:100B900065666768696A6B6C6D6E6F70717273748D
:100BA00075767778797A313233343536373839306B
:100BB000524542545F2D3D5B5D5C233B27602C2EEC
:100BC0002F20202011241FBECFEFDAE0DEBFCDBFE3
:100BD00027E0AAECB1E001C01D92A631B207E1F70F
:100BE00011E0A0E0B1E0E6E2F6E602C005900D9269
:100BF000AA3CB107D9F70E94F3240C94AB320C94B1
:100C000000009093CE068093CD0608959093D00671
:100C10008093CF06089521E030E002C0220F331FF9
:100C20008A95E2F78091CF069091D006822B932B84
:100C30000E940606089521E030E002C0220F331F13
:100C40008A95E2F7209530958091CF069091D00655
:100C5000822393230E9406060895983098F58630E3
:100C600088F5E82FF0E086E0989FE00DF11D112453
:100C70008E2F877041E001C0440F8A95EAF783E028
:100C8000F695E7958A95E1F7EE0FFF1FEE0FFF1F30
:100C9000E856F94F20E030E070E05191DF01119704
:100CA000CB01022E02C0969587950A94E2F78170D7
:100CB00081958527842385278C932F5F3F4F243090
:100CC000310559F70895983078F5863068F5E82FA2
:100CD000F0E086E0989FE00DF11D11249E2F9770A3
:100CE00083E0F695E7958A95E1F7EE0FFF1FEE0F8B
:100CF000FF1FE856F94F40E050E080E0219130E0DE
:100D0000092E02C0369527950A94E2F72170332701
:100D1000042E01C0220F0A94EAF7822B4F5F5F4F27
:100D20004430510559F7089580E008958091D60622
:100D30009091D506981301C008958F5F8770FACF00
:100D40009091D106809589238093D106282F277012
:100D500021110DC0891759F09091D30692FF07C059
:100D60008695869586950E941B061092D106089559
:100D70008091CA069091D406892B5091CB065523B9
:100D8000C1F0909153019923A9F09091D20697FF59
:100D900011C09DE126ED31E040E0F90160812F5F57
:100DA0003F4F61114F5F9150C0F741111092CB0638
:100DB000852B089595E02EEC31E0EECF982F90959D
:100DC0008091CA0689238093CA0608957830B8F4C2
:100DD0006630A8F48430B0F4E62FF0E096E0799F16
:100DE000E00DF11D112490E3899FE00DF11D112408
:100DF000EE0FFF1FE85FF54F85919491089580E015
:100E000090E0089581E0FCCF803E9105D1F1C8F4D7
:100E10008133910509F47FC048F48932910509F4C2
:100E20006FC08A32910509F47DC008958933910518
:100E3000E1F082389105C9F08533910509F45BC072
:100E40000895843E9105D1F148F4823E910531F137
:100E5000833E910541F181EE90E00895863E910533
:100E6000C1F1873E9105E1F108952091D2062370EA
:100E7000211165C02091D30623FF14C089E290E0C0
:100E800008952091D20620FD43C03091D30630FF53
:100E900009C024FF4EC080E090E008952091D20662
:100EA00022FDF7CF08952091D20622FD45C0309152
:100EB000D30630FD44C024FFF5CFEDCF2091D306FB
:100EC00021FFF0CF8091D20684FDE5CF87EE90E040
:100ED00008952091D20623FFE5CF24FDDCCFF6CF85
:100EE0002091D20623FD2EC03091D30631FFE3CFEF
:100EF00084EE90E008952091D20625FFD3CFBECF97
:100F00002091D20625FD21C02091D30623FFCACF10
:100F100089E390E008952091D20626FFC3CF8AE2AC
:100F200090E008952091D20626FFBCCF81E390E0A7
:100F3000089583EE90E0089582EE90E0089580EEAB
:100F400090E0089586EE90E0089585E390E0AACFC2
:100F50009091D20692FF10C041E0282F24712430D6
:100F600009F040E031E0282F2871283009F030E006
:100F7000431711F02CE0822793FF10C041E0282F87
:100F80002471243109F040E031E0282F2871283104
:100F900009F030E0431711F02CE082273091D3069E
:100FA00030FF10C051E0282F2171213009F050E0AE
:100FB00041E0282F2871283009F040E0541711F043
:100FC00029E0822731FF10C041E0282F2171213113
:100FD00009F040E031E0282F2871283109F030E095
:100FE000431711F029E0822794FD877E08951F930F
:100FF000CF93DF930E940407EC01811522E592074D
:1010000008F053C0811540E5940708F0DDC0803E2C
:101010009105F8F48D3C910508F0AEC0883A910531
:1010200080F4853A910508F099C08130910521F04E
:101030000497813A910550F4CE01DF91CF911F9131
:101040000895885A91094B9708F48BC0C0E0D0E00E
:10105000F3CF811550E49507F8F4C11580E2D80765
:1010600008F0CBC0C83ED10538F3CE019A95811562
:101070009F4160F78D2F0E94A807182FCE01992756
:101080000E940407212F30E0322F2227E901CC27CC
:10109000DF71C82BD92BD0CF99270E940407CC270A
:1010A000DF70C82BD92BD06AC7CF803842E59407B0
:1010B000C8F5803652E5950708F067C0C03482E570
:1010C000D807B0F08C2F86958695877020E2829F96
:1010D000C0011124C37021E030E0A90102C0440F17
:1010E000551FCA95E2F7EA01C82BD92BDC68A4CFBB
:1010F000C03252E5D50708F041C08C2F8695869501
:1011000020E2829FC0011124C37021E030E0A901D8
:1011100002C0440F551FCA95E2F7EA01C82BD92B2C
:10112000DD688ACF803C52E5950760F48F71C03A44
:10113000D24508F03FC090E0982F8827EC01C46F9B
:10114000D06A7ACF805C9245809708F07FCFDC2F01
:10115000CC27CC27DF71C06FD06A6ECFA497D06444
:101160006BCFC85AD0E0CC0FDD1FCC56DE4F0990B4
:10117000D881C02DD46460CFD0655ECFCF71D0E070
:10118000DC2FCC27C16FD06A57CF869586958770A4
:1011900020E2829FC0011124C37021E030E0A90148
:1011A00002C0440F551FCA95E2F7EA01C82BD92B9C
:1011B000DA6842CF0E94A807C82FD0E0DC2FCC27E6
:1011C000CC27DF71D06238CF8F710E94A80765E00D
:1011D000D695C7956A95E1F7CF70D0E0DC2FCC2784
:1011E000282F30E084FF05C054E0220F331F5A95AA
:1011F000E1F7C22BD32BD0691FCF8D2F8F710E94A7
:10120000A807182FCE0199270E940407212F30E04C
:10121000322F222722273F71282B392BE901D2CFE9
:10122000A0E0B0E0E6E1F9E00C94C1308C01E09080
:10123000CF06F090D0068091CD069091CE06E82A98
:10124000F92ACFE0D0E0CC24C394D12CC6010C2ED7
:1012500002C0880F991F0A94E2F78E219F21892BE3
:1012600049F4219798F7B12C8B2DCDB7DEB7E9E083
:101270000C94DD30BC2EB8018C2F0E94E6060E9433
:10128000F707019771F3F0CF0F931F93CF93FC01F2
:10129000858100811181882391F0662381F0C80146
:1012A0000E941009C82F682FC8010E942D06B8019E
:1012B0008C2F0E94E606CF911F910F910895C801CF
:1012C0000E946306C82FF3CFCF93DF93D82FC92F87
:1012D0000E9410096D2F7C2F0E94E6060E94F707DE
:1012E000DF91CF910895FC0184818823A1F0808152
:1012F00091810E946409282F92959F70963091F0F9
:1013000060F4925F9F70923030F481E0203F79F07A
:1013100030F4283E30F080E004C09A5FF3CF243FE1
:10132000D1F7089581E0283E18F0213FF9CF0895C4
:10133000089580E00895F894E82FE295EF70F0E0CA
:1013400041A18F7021E030E0B90102C0660F771F24
:101350008A95E2F7CB01962F9095942391A392A1C1
:10136000892B82A3789408950895A0E0B0E0EBEB78
:10137000F9E00C94C030E901493708F048E7E42F60
:10138000F0E0E05AF74F61110BC0E4919E2F8E2FD1
:101390008983E8839A83CDB7DEB7EAE00C94DC302A
:1013A000282F30E0062F10E0F491EF2F86E0829F87
:1013B0006001839FD00C1124EE24EA94F12CC60125
:1013C000B7010E94A430220F331F45E5469FC0019C
:1013D000479F900D1124281B390B822F880F280F4F
:1013E000C701801B910BF89FA001F99F500D11249C
:1013F000952F209F5001219FB00C1124AB2CBB24B2
:10140000D701AA19BB095D01FA9DD001FB9DB00D62
:1014100011248B2F5701A21AB1089501209F50016A
:10142000219FB00C309FB00C1124AB2CBB24EA18C8
:10143000FB08FE9D9001FF9D300D11246330710566
:10144000C9F01CEFC11613E0D10650F461307105EC
:1014500009F49ECF6230710589F08E2FE32F98CF6B
:101460006430710571F066307105B9F3E52F9B2F7B
:101470008F2F8ECFEB2F852F9F2F8ACF852F932FE6
:1014800087CF832FE52FF8CF8091C206843060F498
:10149000837084608093C2068091C506893718F0F6
:1014A00088E78093C50608958C3AB0F38370886A04
:1014B000F1CF609113018091C20680FF0EC070E0F1
:1014C0002091120130E0C901880F991F820F931FEC
:1014D0008F5C9C4F0E943F10089580911401909161
:1014E0001501282F30E0F901EE0FFF1FE20FF31F67
:1014F000EF5CFC4F891718F71182108212828F5F00
:101500003396F8CFEF92FF921F93CF93DF93EC01C6
:1015100010E0EE24EA94F12C60911601161770F099
:101520000E94590A9A818C8190FF25C08F5F8C831D
:10153000DF91CF911F91FF90EF900895809114015A
:10154000810F9927991F9C01220F331F280F391FE4
:101550002F5C3C4F70E0C7010E940931962F8C81AF
:101560004091C5066091C406199F800D11240E9408
:10157000B5091F5FD1CF8150DACFA0E0B0E0E3EC36
:10158000FAE00C94BF30EC01A09016018C819A8196
:1015900090FD0DC0BB24B39481110DC08FEF8A0D57
:1015A000BB24B3948093300381E08C8304C0BB24BC
:1015B000BA948823B9F3E12CF12CEA14B8F00E9414
:1015C000590A90913003E1E0BE1254C08091160197
:1015D0008150992319F08FEF890F91E080933003A8
:1015E0009C83CDB7DEB7EBE00C94DB308091140127
:1015F0008E0D9F2D911D8C01000F111F080F191FBB
:101600000F5C1C4FF80111821082128234E0C32E4D
:10161000D12C912C80913003890D87333CF166E306
:101620000E94FB30892F082E000C990B8E159F0508
:1016300091F48091C5068C9DA0018D9D500D1124C3
:10164000559547955595479598016091C4068091A9
:10165000C3060E94B5099B0CF1E0CF1AD108C11452
:10166000D104C1F68FEFE81AF80AA7CF87FFDBCFC6
:101670008A0DD9CF892F90E001966091160170E014
:101680000E940931982FAACF0F931F93CF93DF9316
:10169000EC018C81811109C081E08C8310922F03B1
:1016A00092E090930601809305011091140120911E
:1016B0001501812F90E0FC01EE0FFF1FE80FF91FCD
:1016C000EF5CFC4F821750F100E0609116010617A5
:1016D00058F10E94590A8091050120912F03280F8B
:1016E00020932F0390910601980F909306011916ED
:1016F00054F4022E000C330B409116014150550B4F
:101700002417350734F0819580930501813009F461
:101710001C82DF91CF911F910F9108951182108249
:1017200012828F5F3396CECF202F30E070E0C90158
:101730000E940931810F90E040912F03042E000C8C
:10174000550BFC01EE0FFF1FE80FF91F241735079B
:10175000ACF040910601042E000C550B42175307C4
:101760006CF09F012F5C3C4F4091C5066091C40610
:101770008091C3060E94B5090F5FA7CFEF5CFC4FB5
:10178000118210821282F8CFAEE0B0E0EAECFBE00A
:101790000C94C4308D879E87AD85BE8514961C91B0
:1017A000212F30E0D9010E949C329B01AC010E94A4
:1017B000673269837A838B839C83E0E2F0E0E11BEC
:1017C000F109A5E5B0E09B01AC010E946732698791
:1017D0007A878B879C879F01DF010E9423319B01C1
:1017E000AC010E9472326D837E838F8398879B0148
:1017F000AC0189819A81AB81BC81280F391F4A1FB6
:101800005B1F69857A858B859C850E947A32022FC1
:1018100030E00A3248F5A901440F551F420F531F0B
:1018200055954795142F1095F12C85E5E82EE01A73
:1018300080911601F81630F10E94590AAD85BE85D7
:1018400014969C9181E0992319F0903219F48FEF4E
:101850008093040180910401890FED85FE858483C6
:101860002E96E6E00C94E03085E590E0821B930B29
:10187000AC01440F551F480F591F57FFD1CF4F5F81
:101880005F4FCECF8E2DF1FC802F409114014F0D74
:101890005527551F9A01220F331F240F351F2F5C28
:1018A0003C4F412F6091C4060E94B509F394C0CF0C
:1018B0000F931F93CF93DF93EC0100E010E0409172
:1018C0001601842F90E0081719076CF00E94590A3E
:1018D0008C8190E00196817099278C83DF91CF9164
:1018E0001F910F91089580911401800F912F911DE8
:1018F0009C01220F331F280F391F2F5C3C4F9C8106
:101900006091C4068091C306469550E00417150700
:101910004CF4992349F04091C5060E94B5090F5F28
:101920001F4FCDCF9923B9F340E0F7CF9091C20676
:1019300090FF11C09091140150911501292F30E0B2
:10194000F901EE0FFF1FE20FF31FEF5CFC4F95173D
:1019500018F00E94590A08958183608342839F5F33
:101960003396F5CFA3E0B0E0E8EBFCE00C94C63092
:101970008C0180912E0381110AC09E012F5F3F4F81
:1019800048E76FEF0E94B5098A8180932E03F80122
:101990006481613049F06230D1F080912E0340E0E3
:1019A000662331F040E015C060912E0340E080E0F6
:1019B0000E94960CF801848190E0019663E070E04B
:1019C0000E94093184832396E4E00C94E230409134
:1019D0002E0380E060E0ECCFA3E0B0E0E2EFFCE0BB
:1019E0000C94C8309091C20690FF0AC09E012F5FF0
:1019F0003F4F0E94B5094B8169818A810E94960CF4
:101A00002396E2E00C94E430CF93DF93EC01E2EC18
:101A1000F6E0438162818C810E94EC0C8C818F5FA7
:101A20008C83DF91CF910895EFEBF6E011828281F4
:101A3000846082830895CF93DF93EC01EC81F0E022
:101A4000E55AF84F4491E2ECF6E0628181810E9410
:101A5000EC0C8C818F5F8C83DF91CF910895FA011C
:101A6000882311F009950895FB01FCCF539A08953E
:101A7000282F35EB2303C001112497FF04C08058A1
:101A80009109892F089580589F4FFBCF8091B2060E
:101A900080FD14C081FD14C082FD16C08091B10686
:101AA000882381F08E3180F420E5829FC0011124CB
:101AB0006EE170E00E940931862F089584E1089557
:101AC00088E2089588E0089580E508958091B2063F
:101AD00080FD17C081FD17C082FD19C08091B0063E
:101AE000882399F0883298F428E0829FC00111245D
:101AF00068E270E00E9409316115710551F0862F8E
:101B0000089562E0FCCF64E0FACF61E0F8CF68E0CE
:101B1000F6CF81E0089580916A06882359F0E0911C
:101B20008E06F0918F06309729F00190F081E02D1C
:101B30000995089580E00895A3E0B0E0E2EAFDE0B1
:101B40000C94C8309C0180911E0290911F02821754
:101B50009307A1F030931F0220931E02E0918E069E
:101B6000F0918F06309751F083E089833B832A837D
:101B70000084F185E02DCE01019609952396E2E0DF
:101B80000C94E430A3E0B0E0E8ECFDE00C94C83045
:101B90009C0180911C0290911D0282179307A1F075
:101BA00030931D0220931C02E0918E06F0918F0667
:101BB000309751F084E089833B832A830084F18548
:101BC000E02DCE01019609952396E2E00C94E430D5
:101BD000909153019923C1F09091D20697FF14C0C0
:101BE000E82FE695E695E695803FF8F4F0E0EC52B4
:101BF000FE4F877021E030E001C0220F8A95EAF79E
:101C00008281822B82830895AEECB1E0EFEF90E009
:101C10002D91821751F0EF3F19F4211101C0E92FE6
:101C20009F5F9630A9F7EF3F09F408950E2E000C40
:101C3000FF0BE453FE4FE6CF909153019923E1F05F
:101C40009091D20697FF18C0E82FE695E695E695A5
:101C5000803FF0F4F0E0EC52FE4F877021E030E07E
:101C6000A90102C0440F551F8A95E2F7CA01809569
:101C70009281892382830895EEECF1E0919189139A
:101C800003C0DF0111971C9251E0E43DF507B1F765
:101C90000895A4E0B0E0EFE4FEE00C94C8308FB704
:101CA000F89420914A0630914B0640914C06509191
:101CB0004D0629833A834B835C838FBF69817A8188
:101CC0008B819C812496E2E00C94E430A4E0B0E0A7
:101CD000ECE6FEE00C94C83080916A06882371F02F
:101CE0000E94490E69837A838B839C8369817A8100
:101CF0008B819C812496E2E00C94E4300E94490E92
:101D000069837A838B839C838091660690916706B2
:101D1000A0916806B091690629813A814B815C8166
:101D2000280F391F4A1F5B1F29833A834B835C832B
:101D3000DDCF87E797E7909301088093000888E15B
:101D40009AE00FB6F894A895809360000FBE909328
:101D50006000FFCF80911B020895FC019B018091E0
:101D60001102909112028617970740F0672B29F411
:101D70008091E8008E778093E800C90140E00097E9
:101D800041F4411106C08091E80082FF2FC080E03D
:101D900008952091E0032223A9F12530A9F1209193
:101DA000E80023FD2DC02091E80022FDECCF20911A
:101DB000E80020FFE4CF3091F3002091F20000977B
:101DC00019F02830310558F041E02830310509F08C
:101DD00040E02091E8002E772093E800D0CF419199
:101DE0004093F10001972F5F3F4FE9CF8091E003CF
:101DF000882341F0853041F08091E80083FFC3CF14
:101E000081E0089582E0089583E0089580910B02B7
:101E100087FF13C08091E80082FF06C08091E80030
:101E20008B778093E80004C08091E0038111F2CFAA
:101E300008958091E0038823D9F38091E80080FF22
:101E4000F8CF8091E8008E77ECCF2091E4003091BC
:101E5000E50095E6A9018091EC008170882331F0BE
:101E60008091E80080FF06C080E008952091E8009E
:101E700022FD1BC08091E003882391F0853091F012
:101E80008091EB0085FD10C02091E4003091E500C9
:101E90004217530701F391509111DCCF84E008956C
:101EA00082E0089583E0089581E00895E8EDF0E090
:101EB00080818E7F80831092E2001092DA0010926F
:101EC000E100A0EEB0E08C9181608C9380818F77EF
:101ED000808319BCA7EDB0E08C918E7F8C938081BC
:101EE0008F7E808310920A020895FC01AC014C5F42
:101EF0005F4F8FEF91E32191822728E030E087FF49
:101F00000BC0880F89272150310921153105B9F7F8
:101F1000E417F50781F70895880FF5CF982FE42F80
:101F2000E2709093E900891308C0762F242F50E0C7
:101F3000E11111C091E0980FF4CF7091EC00209165
:101F4000ED005091F00021FD06C09F5F973049F7EA
:101F50008093E90008953091EB003E7F3093EB00D1
:101F60003091ED003D7F3093ED003091EB0031601A
:101F70003093EB007093EC002093ED005093F00051
:101F80002091EE0027FDE1CF0895A0E0B0E0EBEC5A
:101F9000FFE00C94C230C8EDD0E088818F7E88834A
:101FA000E7EDF0E080818160808384E082BF81E0A2
:101FB00080930A0288818E7F888302EE10E0F80108
:101FC00010821092DA0081EEC82ED12CF601108218
:101FD00088818F77888388818068888388818F7DD6
:101FE000888319BC1092E003109209021092DF035B
:101FF0001092080290EEE92EF12CF70180818B7F80
:10200000808388818160888342E060E080E00E9474
:102010008E0FF60180818E7F8083F8018081816040
:102020008083808188608083F70180818E7F8083B8
:10203000888180618883CDB7DEB7E8E00C94DE301C
:10204000E091D6069091D50627E0E91302C080E022
:102050000895AE2FB0E02E9FF0011124E952F94F00
:102060003181361306C03081381303C035813413F3
:1020700004C0FD013196E770E8CF81E008959C012E
:10208000AB016BB1677F7BB17860EFB7F894CA01A1
:10209000880F991F840F951F820F931F8217930734
:1020A00041F4EFBF8FE594E00197F1F700C0000025
:1020B0000895D9014D919D0158E07BB9000000C001
:1020C00047FF6BB9440F000000C000C000C06BB9EF
:1020D00000C05A9591F7E2CF0F931F93CF93DF93F0
:1020E000EB018A019091E003943079F58093E90047
:1020F0008FEF9091E80095FD07C095ED9A95F1F767
:10210000000081508111F5CF8091E80085FF1DC04E
:102110000E94250F811114C08091E80085FD06C042
:102120008091E8008E778093E800F2CF88818093D9
:10213000F100015011090115110511F02196ECCFA4
:102140008091E8008E778093E800DF91CF911F9116
:102150000F910895CF93DF93D82FC92F48E050E017
:10216000682F792F81E00E946C1088E0ED2FFC2F02
:10217000A3E1B2E001900D928A95E1F7DF91CF9152
:102180000895BC0140E250E082E00E946C10089586
:10219000BC0146E050E082E00E946C100895BC0152
:1021A00043E050E082E00E946C100895A0E0B0E0AF
:1021B000ECEDF0E10C94C030F82EE92EB62EA72EEF
:1021C0008A0180910602CC24C394D12C8A3018F461
:1021D0008AE0C82ED12CC1E0D0E06B2D7A2D8F2D56
:1021E0009E2DF8010995811116C02196CC16DD06A9
:1021F00094F0CC9FC001CD9F900D900D112420E054
:1022000030E045E34A95F1F700002F5F3F4F281774
:102210003907B9F7E2CFCDB7DEB7EAE00C94DC308E
:102220009091D30692FB222720F9281779F080FBA2
:1022300092F99093D3066091D2067091D30684E010
:1022400090E00E94323282E00E94A00608958091C0
:102250005301882359F18091D20687FF27C00E943D
:10226000B8068093D50140E250E06EE676E084ED5A
:1022700091E00E94DA31892BC1F080E2E4EDF1E0D7
:10228000AEE6B6E001900D928A95E1F7E0918E06F8
:10229000F0918F06309749F086E08093D401048056
:1022A000F581E02D84ED91E0099508950E94B8062E
:1022B0008093CC0148E050E060E976E08CEC91E05E
:1022C0000E94DA31892B89F388E0ECECF1E0A0E997
:1022D000B6E001900D928A95E1F7E0918E06F091BB
:1022E0008F06309711F30280F381E02D8CEC91E0A2
:1022F000DBCF882339F09091CA06892B8093CA06D8
:102300000E9427110895882321F00E94DE060E9472
:1023100027110895A8E0B0E0E0E9F1E10C94C7309E
:1023200040913A0650913B0660913C0670913D0603
:102330002FB7F89480914A0690914B06A0914C06D5
:10234000B0914D062FBF841B950BA60BB70B11E068
:1023500084369105A105B10578F10E94660EDC0175
:10236000CB010296A11DB11D89839A83AB83BC83E7
:102370008091440190914501825B994F20914301E6
:10238000422F50E0253010F044E050E0BE016F5F76
:102390007F4F0E94E73183E090E00E942F30182F9A
:1023A000882351F00E94490E60933A0670933B06D1
:1023B00080933C0690933D06812F2896E3E00C9491
:1023C000E330A0E0B0E0E7EEF1E10C94C230E82F9A
:1023D000EB01B901D801C880D980EA80FB808FB7B2
:1023E000F89400914A0610914B0620914C063091CA
:1023F0004D068FBF0C191D092E093F090436110522
:102400002105310510F4442309F10E2F0E2E000C86
:10241000110B88E0E802F0011124E55DFE4F818197
:102420009281825B994F408150E0A417B50708F470
:10243000AD010E94E731C8010E942F30882339F096
:102440000E94490E688379838A839B8381E0CDB79C
:10245000DEB7E8E00C94DE300F931F93CF93DF9349
:10246000D82FC92F44E050E063E576E00E94DA31CE
:1024700041E0892B09F440E004E010E02D2F3C2FCF
:102480006EE376E082E00E94E111DF91CF911F912F
:102490000F910895ABE0B0E0E0E5F2E10C94C630B6
:1024A00028E0E2ECF6E0CE010196DC0101900D920D
:1024B0002A95E1F73091BF062091C0065091C106E0
:1024C00039872A875B8741E09C01511101C040E0B8
:1024D0000BE010E066E376E084E00E94E1118111F8
:1024E0001092C1062B96E4E00C94E230EF92FF923A
:1024F0001F93CF93DF9300D000D00F92CDB7DEB7FC
:102500007B0180E090E00E942F30182F81111AC0CB
:1025100010E08091420690914306A0914406B0914C
:102520004506F70180839183A283B383812F0F90A7
:102530000F900F900F900F90DF91CF911F91FF9010
:10254000EF90089580912E01482F50E0882311F0DC
:1025500041E050E060912F0170913001625B794F52
:10256000CE0105960E94E7314091460650914706FC
:1025700060914806709149062FB7F89480914A06F9
:1025800090914B06A0914C06B0914D062FBF841B35
:10259000950BA60BB70B84369105A105B10538F450
:1025A0008FE496E00E94750F9D818917B9F181E053
:1025B00090E00E942F30882309F4AACF8091360141
:1025C000482F50E0853010F044E050E06091370132
:1025D00070913801625B794FCE0101960E94E7311C
:1025E0008FE496E00E94750F9D81891391CF0E9420
:1025F000490E609346067093470680934806909371
:10260000490689819A81AB81BC818093420690936F
:102610004306A0934406B09345067BCF80914F06B6
:1026200090915006A0915106B091520689839A83E9
:10263000AB83BC83E6CFA0E0B0E0E1E2F3E10C9431
:10264000BA30FC016280448081E08483EBE5F7E0EE
:102650007490EAEDF7E0E491C091C506C695C158C3
:10266000D0E0CC0FDD1FCD2FDD27812C75E0972E1C
:10267000AA24AA94B12C55245A94E719EE2EF12CD1
:1026800080911601881638F00E94590ACDB7DEB73E
:10269000E0E10C94D630C82CD12C82E0861568F08D
:1026A0009C9CF0019D9CF00D1124E05EFD4F8091FB
:1026B000C30680838091C4068183411023C09C9C03
:1026C000F0019D9CF00D1124E05EFD4F13821282FB
:1026D000809114018C0D9D2D911D9C01220F331FA3
:1026E000280F391F2F5C3C4F9C9CF0019D9CF00DE6
:1026F0001124E05EFD4F4281618180810E94B50915
:102700008394BECF9C9C80019D9C100D1124005E83
:102710001D4FF80183818823F1F081508383589EF7
:10272000C0011124648170E00E94A430FB01FF27E6
:10273000E55AF84F8491E82FE7195E9EC0011124F5
:10274000B7010E94A4308091C506689FB001112492
:10275000F8017283BDCF0E94B431B5010E940931E6
:102760008C179D070CF0B4CFF2E0F61598F40E9498
:10277000B431B5010E940931F80180830E94B4315F
:102780002091C4062695622F70E00E940931280F1F
:10279000F80121839C9CF0019D9CF00D1124E05ECA
:1027A000FD4F12828091C506893C58F088EC9C9CB4
:1027B000F0019D9CF00D1124E05EFD4F8483838326
:1027C00087CF8431A0F784E1F2CFA0E0B0E0EBEE58
:1027D000F3E10C94C2308901D42FC52F6B017C0129
:1027E0000E94440AA8016D2F7C2F88E090E00E948F
:1027F000263298014D2F5C2FB601C70100E20E94DE
:102800004D31622F83E290E00E941432CDB7DEB7E3
:10281000E8E00C94DE308091C606833018F48F5FB8
:102820008093C6062091C2063091C3064091C4062B
:102830005091C5066091C6067091C7068091C80682
:102840009091C9060E94E51308958091C6068823D9
:1028500019F081508093C6062091C2063091C306BC
:102860004091C4065091C5066091C6067091C70696
:102870008091C8069091C9060E94E5130895A3E0CF
:10288000B0E0E5E4F4E10C94C030F82ED62EE42E4E
:10289000B22E9091C20690FF42C03091C306381309
:1028A00008C08091C406861304C08091C5068417B1
:1028B00029F08091C10682608093C106E92FE695D8
:1028C000E695AE2FB0E0AB5ABE4F8C918093BF0619
:1028D0009C7F943041F59E012F5F3F4F4E2D6D2D13
:1028E0008F2D0E94B5094B8169818A810E94960CC7
:1028F0003F2D3093C306D092C406E092C506BB209C
:1029000071F02091C2066091C6067091C7064D2DE8
:102910005E2D8091C8069091C9060E94E51323960A
:10292000EAE00C94DC30823019F4E090C506E0CF88
:102930008630F9F28930E9F28931D1F6E9518E2FEA
:102940008170A82EE695F0E0E55AF74FE491C12C8E
:102950000E2F10E060911601C61618F00E94590A59
:10296000C7CF2C2D30E0C09EC001C19E900D112418
:1029700070E00E94A4308F2DA11013C0860F90919B
:102980001401A901490F511D9A01220F331F240F71
:10299000351F2F5C3C4F4E2D6D2D0E94B509C39401
:1029A000D9CF861BECCFE2ECF6E0818121E04381B8
:1029B0006281865F0E943F140895E2ECF6E0818117
:1029C00021E0438162818A500E943F140895E2EC25
:1029D000F6E0628121E1620F08F46FEF21E04381AC
:1029E00081810E943F140895E2ECF6E0628121E1CA
:1029F000621B08F460E021E0438181810E943F1462
:102A00000895E2ECF6E0438121E1420F08F44FEF34
:102A100021E0628181810E943F140895E2ECF6E09A
:102A2000438121E1421B08F440E021E06281818181
:102A30000E943F140895AB0124E630E0BC0188E712
:102A40000E94462E9C0181E0232B09F080E008952E
:102A500080913006882369F080912D06882349F003
:102A600062E070E08EEA90E00E941B1581111092E6
:102A70002D060895A4E0B0E0E0E4F5E10C94C83040
:102A8000809130068823F9F00E94490EDC01CB01C9
:102A9000805A9541AF4FBF4F8093290690932A06E5
:102AA000A0932B06B0932C0680912D0681110BC0AC
:102AB00062E070E08CEA90E00E941B15882319F018
:102AC00081E080932D062496E2E00C94E430CF93CD
:102AD000DF93682F81E06A3019F06D3031F480E0C7
:102AE0000E94E715DF91CF9108958091FB039091AB
:102AF000FC0326E0FC01A0E0B2E001900D922A95D3
:102B0000E1F7603E08F458C026E0FC0111922A95D6
:102B1000E9F7C091FB03D091FC0346E050E0BE0111
:102B200080E092E00E94DA319E0125523440892BE8
:102B300041F1C90145E0969587954A95E1F741E055
:102B400050E0BA0102C0660F771F8A95E2F7CB0109
:102B50006091270670912806862B972BB9016B5F31
:102B60007F4FE5E076956795EA95E1F702C0440F5F
:102B7000551F6A95E2F7842B952B90932806809336
:102B800027062A5F3F4F4091FD03642F70E0C90183
:102B90000E94A430481B463010F4240F311D21152B
:102BA00072E0370710F020E030E02B5D3B4F3093B0
:102BB000FC032093FB0396CFF6E06F9FB001112436
:102BC00060557F4F46E050E00E94C431A2CFCF93C2
:102BD000382FE091FB03F091FC03E552F440209183
:102BE000FD03622F70E0CF010E94A430281B822FCA
:102BF000332361F066E00E94EF30C82FC15010F41B
:102C0000CF91089580E20E946715F8CF9F01280FA9
:102C1000311D2115324018F080E0E0E0F0E08E0F29
:102C20009F2F911D8B5D9B4F9093FC038093FB0323
:102C3000E7CFCF93DF93EC01FE018491811103C0B4
:102C4000DF91CF9108950E9467152196F5CF0E94DC
:102C5000191681E00E94E71508951F921FB61F9272
:102C600011248F939F93AF93BF938091DE038111C3
:102C700013C080914A0690914B06A0914C06B091EA
:102C80004D064196A11DB11D80934A0690934B06B7
:102C9000A0934C06B0934D06BF91AF919F918F9139
:102CA0001F901FBE1F9018952FB7F89480914A0669
:102CB00090914B06A0914C06B0914D062FBF089500
:102CC00080916A06882319F00E94541608950E9484
:102CD000660ECB0108956091C2066695669570E018
:102CE0004BE050E087E091E00E94CD31892B19F450
:102CF00081E08093C0060E9460169093F603809353
:102D0000F5038091C10684608093C1060895909177
:102D1000C20690FF42C0882309F440C08B3208F0FD
:102D20003FC08F73282F220F220F8091C20683701D
:102D3000282B2093C2068091C10681608093C10632
:102D4000662381F03091C3064091C4065091C506B8
:102D50006091C6067091C7068091C8069091C90619
:102D60000E94E5136091C2066695669570E04BE09F
:102D700050E087E091E00E94CD31892B99F00E94CC
:102D8000140D81E08093F80320E04091C506609126
:102D9000C4068091C3060E943F14089581E0C2CF0B
:102DA0008AE2C0CF0E946B16ECCF8091C206869556
:102DB00086958F5F8B3208F081E061E00E94871674
:102DC00008959091C206969596958FEF890F913050
:102DD00009F48AE261E00E94871608959091C20684
:102DE00090FF09C096959695981728F0961718F4B5
:102DF0000E94D516089561E00E94871608950E94EA
:102E000054162091B5063091B606232B222321F0CB
:102E100080933306909334062091B7063091B8061C
:102E2000232B222321F08093310690933206E091E8
:102E30008E06F0918F06309749F082E08093B306BA
:102E40000680F781E02D83EB96E0099508952091A7
:102E5000B5069091B8063091B706662309F45AC0BA
:102E60004091B606242B292B232B222331F098E006
:102E70009093B10691E09093B0068D3C41F40E948E
:102E8000460D81958093B6060E94FF160895E2E3F1
:102E9000E80FE231C8F7F0E0E355FD4C0C941D312A
:102EA0000E94460DEFCF0E94460D81958093B50696
:102EB000EBCF0E94460DFACF0E94660D8093B706B5
:102EC000E3CF0E94660D8195F9CF0E94660D819532
:102ED0008093B806D9CF0E94660DFACF815D990B19
:102EE00021E030E001C0220F8A95EAF78091B40614
:102EF000822B8093B406C8CF8091B2068160809304
:102F0000B206C2CF8091B2068260F9CF8091B2063C
:102F10008460F5CF8D3C59F48091B60687FF0DC0D3
:102F20001092B606222359F41092B10608C08E3CC6
:102F300081F48091B60618169CF3222381F08091CB
:102F4000B7069091B806892B81119ECF1092B006DA
:102F50009BCF8F3C41F427FFF0CF1092B5068091B4
:102F6000B6068823E0CF803D19F41216B4F3E5CFFE
:102F7000893D29F413160CF71092B706DECF8A3D6F
:102F800019F437FFDACFF8CF8B3D29F497FFD5CF6F
:102F90001092B806D2CF8C3D19F41916CCF3CDCFD0
:102FA0009FE2980F983090F4815D990B41E050E0DA
:102FB000BA0102C0660F771F8A95E2F7CB018095B0
:102FC0009091B40689238093B406B7CF8D3D31F438
:102FD0008091B2068E7F8093B206AFCF8E3D21F4F2
:102FE0008091B2068D7FF7CF8F3D09F0A6CF8091FB
:102FF000B2068B7FF0CFCF93C82F8823B1F18CEF2F
:103000008C0F813AA0F580915301882301F18091C2
:10301000D20687FF1CC0EC2FE695E695E695F0E01A
:10302000EC52FE4F828190E04C2F477021E030E05F
:1030300002C0220F331F4A95E2F782239323892B84
:1030400079F08C2F0E941C0E0E94271109C0EEEC13
:10305000F1E08191C817A9F321E0E43DF207C9F737
:103060008C2F0E94E80D0E942711CF91089580E2D5
:103070008C0F883068F4C77081E090E001C0880F41
:10308000CA95EAF7C091CA06C82BC093CA06EBCF0F
:103090008BE58C0F833038F42C2F2452330BC9016D
:1030A0000E949C0DE2CFE8E5EC0FEB3150F4F0E02C
:1030B000EE0FFF1FEC56FE4F808191810E94C20DE2
:1030C000D4CF83E38C0F833180F661E08C2F0E9494
:1030D0002717CBCF882381F19CEF980F913A28F4E2
:1030E0000E941C0E0E942711089590E2980F9830BC
:1030F00050F4877091E001C0990F8A95EAF7892F03
:103100000E94DE06EFCF9BE5980F933028F480E015
:1031100090E00E949C0D089598E5980F9B3128F44B
:1031200080E090E00E94C20D089593E3980F9331E0
:1031300018F460E00E94271708951092CA06809143
:103140005301882339F18091D20687FF23C0E6ED31
:10315000F1E08EE1DF011D928A95E9F780E090E0D1
:103160000E949C0D80E090E00E94C20D1092D40657
:103170000E94271186E0E3EBF6E0DF011D928A95BD
:10318000E9F71092B1061092B0061092B2060E94B2
:10319000FF160895EEECF1E086E0DCCF0E949D186A
:1031A0002FEF84E39CE0215080409040E1F700C085
:1031B000000088E19AE00FB6F894A895809360002B
:1031C0000FBE90936000FFCFAAE2B0E0EAEEF8E114
:1031D0000C94C7308BE092E0FC0101962091F10045
:1031E000208322E083319207B9F780910C02893065
:1031F00009F456C0C8F4823009F4B2C0833009F42F
:1032000081C0813071F18091E80083FFE6C0809138
:103210000B0290910C029A3008F0DFC0E92FF0E029
:10322000E154FD4C0C941D318A3009F488C08B3078
:1032300051F780910B02813231F780910F0290910A
:103240001002892B01F78091E800877F8093E800C6
:103250000E94060F80910D02809353010E949D18D9
:10326000D2CF80910B02813A71F68091E800877F7E
:103270008093E80080910F0290911002892B61F0F9
:1032800060E080E090E070E00E94AD0E8091E80088
:103290008B778093E800B7CF68E083E192E0F3CFCB
:1032A00080910B02813209F0AECF80910F02909194
:1032B0001002029708F0A7CF8091E800877F8093E3
:1032C000E8008091E80082FF18C09091F30080919F
:1032D000F200029731F48091F100813011F08630D4
:1032E00021F48091F10080931B028091E8008B779C
:1032F0008093E8000E94060F86CF8091E003811141
:10330000E0CF81CF80910B02813A09F07CCF809190
:103310000F0290911002892B09F075CF8091E8007F
:10332000877F8093E8008091E80080FFFCCF809148
:1033300053018093F1008091E8008E77D9CF80917E
:103340000B02813209F05FCF8091E800877F809384
:10335000E8000E94060F80910E028093070253CF6F
:1033600080910B02813A09F04ECF8091E800877F6F
:103370008093E8008091E80080FFFCCF80910702F5
:10338000D8CF803889F0823841F580910F028F7054
:10339000873018F58093E9008091EB0085FB882742
:1033A00080F91092E90006C0809108029091DF0335
:1033B000911182609091E800977F9093E80080934C
:1033C000F1001092F1008091E8008E7723C0811106
:1033D00016C080910D02813011F18091E80083FFC9
:1033E0000AC08091E800877F8093E8008091EB001D
:1033F00080628093EB00AA96E3E00C94E330823085
:1034000061F780910D02882389F01092E900809184
:10341000E800877F8093E8000E94060FDECF81E0FE
:10342000933009F080E08093DF03EFCF80910F02AB
:103430008F702FEF280F263080F68093E9002091BF
:10344000EB0020FFE2CF933031F48091EB008062FB
:103450008093EB00DACF9091EB0090619093EB00BA
:1034600021E030E0A90102C0440F551F8A95E2F720
:103470004093EA001092EA008091EB008860E8CF68
:103480008111ABCF10910D021F778091E3008078FE
:10349000812B8093E3008091E800877F8093E80090
:1034A0000E94060F8091E80080FFFCCF8091E3002E
:1034B00080688093E30083E0111101C082E0809373
:1034C000E0038BCF8058823008F087CF40910D0207
:1034D00050910E024C3D83E0580799F583E08A83B2
:1034E0008AE289834FB7F894DE01139620E03EE02C
:1034F00051E2E32FF0E050935700849120FF03C086
:1035000082958F703F5F8F708A30C8F0895C90E041
:103510008D939D932F5F243161F74FBF8091E80019
:10352000877F8093E8006AE270E0CE0101960E94F6
:10353000AD0E8091E8008B778093E8004ECF805DE0
:10354000E6CF20910F0230911002852F992783300A
:10355000910509F160F48130910509F472C0029778
:1035600009F03BCF8BE390E0EAEEF6E029C0813230
:10357000910509F45AC0829709F02FCF2115310522
:1035800009F469C02130310509F027CF86EB90E0BE
:10359000E0EFF5E015C0CA0199274130B1F1823062
:1035A000910509F43AC0892B09F017CFE7E5F7E058
:1035B000E4918E2F90E0E7E5F7E0009709F40DCF56
:1035C0002091E800277F2093E8002091110230919C
:1035D00012028217930708F49C0140E0211531057F
:1035E00009F03EC041113CC08091E80082FDA1CFAE
:1035F0008091E003882309F49CCF853009F499CFAA
:103600008091E80083FFF0CF94CFE5E4F7E0E49108
:103610008E2F90E0E5E4F7E0D0CFE7E3F7E0E49128
:103620008E2F90E0E7E3F7E0C8CF2115310571F068
:103630002130310509F0D1CE89E090E0E5E1F7E0F5
:10364000BFCF82E190E0E5E2F7E0BACF89E090E019
:10365000ECEFF6E0B5CF84E490E0E6EAF6E0B0CF38
:103660008091E003882309F464CF853009F461CFA9
:103670008091E80083FD5DCF8091E80082FDB4CFAA
:103680008091E80080FFAACF9091F3008091F20032
:103690002115310519F08830910550F041E0089767
:1036A00009F040E08091E8008E778093E80096CFA3
:1036B00044914093F1003196215031090196E8CFB1
:1036C000803809F08ACE8091E800877F8093E800F7
:1036D000809109028093F10076CE81117ECE109107
:1036E0000D02123008F079CE8091E800877F809338
:1036F000E800109309020E94060F112381F084E074
:103700008093E00342E061EC81E00E948E0F42E290
:1037100061EC82E00E948E0F8091E0035ECE80918A
:10372000E30087FDECCF81E0EBCF9C014FB7F8942D
:1037300080914A0690914B06A0914C06B0914D069F
:103740004FBF821B930B08950F931F93CF93DF936B
:10375000C62FD42F122F8823A9F06093BD060E9494
:1037600054169093FF018093FE01C77081E001C061
:10377000880FCA95EAF70E947911DF91CF911F91C6
:103780000F9108958091BD06681338C08091FE01A5
:103790009091FF010E94951B883C910578F5CD130F
:1037A0000FC0812F0E94FB17812F0E946A18D770CB
:1037B00081E001C0880FDA95EAF70E948311DDCF1E
:1037C000C77001E0802F01C0880FCA95EAF70E94F8
:1037D000831180E28D0F883050F48D2F877001C0E7
:1037E000000F8A95EAF7802F0E947911DACF812F96
:1037F0000E94FB17812F0E946A18BFCFC77081E01B
:1038000001C0880FCA95EAF7D8CFA0E0B0E0EBE09E
:10381000FCE10C94C2307C01FC018481882309F412
:10382000AFC061E0C7010E944409EC01F701858146
:10383000882309F4B9C491819093BC069081909338
:10384000BB0690E290935401D093BA06C093B90698
:103850009E0130522115304230F5F70186818031CA
:1038600008F459C0FE01FF27CD3308F46EC0109252
:10387000BD06CE019057839708F4F9C0C6313CE7E6
:10388000D30701F58091CA068A7A91E0811101C0BF
:1038900090E09093BE068111B9C189E20E94E80DC3
:1038A0000E9427115DC09E0130542115304150F512
:1038B000F70186818031B0F61092BD06CA35ECE77B
:1038C000DE0779F1CB35FCE7DF0708F032C2C13003
:1038D0002CE7D20709F445C2C3303CE7D30709F40B
:1038E0003AC2C115DC4709F069C00E949D18FFEF7C
:1038F00024E33CE0F15020403040E1F700C00000FC
:103900000E94990E9E013A9521153F4160F4FE01F7
:10391000FF27CD33D0F01092BD06CA35FCE7DF0794
:10392000B1F681E015C29E01205A324520323105A0
:1039300008F442C0FE01CD33D10508F02BC4E8578E
:10394000F44FE491E0935401B7CFE857F44FE4917A
:10395000E09354018CCF26E241EE61EE0E94A41B5D
:103960008091D1068770882359F0F70185818823DB
:1039700039F08091D30682FF03C082E00E94A00646
:10398000CDB7DEB7E8E00C94DE3027E245EE65EE19
:10399000E5CF26E241EE60EEE1CF27E245EE64EEB0
:1039A000DDCF26E241EE62EED9CF27E245EE66EEAC
:1039B000D5CF28E241E0EBCF1092BD06F70185811B
:1039C00000811181882309F4D0C1C8010E94100927
:1039D000C82F682FC8010E942D06B8018C2F0E94A5
:1039E000E6060E94F707D82FC92FF701D580C680B9
:1039F000C2948FE0C8228091D10687708823F9F0A5
:103A00000D2DDD20E9F0892F807F803461F080E288
:103A10008D0F8830A0F0892F807E803221F4D23043
:103A200070F0CC2061F08091D30682FF08C082E064
:103A30000E94A0068091D106877001E0811100E00C
:103A4000EC2FE295EF70C03C08F0F5C1F0E0E753D1
:103A5000FD4C0C941D311092BD06CE0190578397FA
:103A600030F0C6319CE7D90709F028CF0BCF84E0AE
:103A700090E00E94FE319093D3068093D206FE011F
:103A8000E150F047E232F10520F4EB52FD4C0C948A
:103A90001D318091D20681608093D2066091D2065A
:103AA0007091D30684E090E00E9432320E949D180B
:103AB00057CF8091D30688608093D306EFCF809153
:103AC000D2068260E9CF8091D2068460E5CF8091F2
:103AD000D2068860E1CF8091D3068160EDCF8091DE
:103AE000D3068260E9CF8091D2068061D5CF8091E4
:103AF000D2068062D1CF8091D2068064CDCF0E9461
:103B00009D188091D2068068C7CF8091D2068C60C4
:103B1000C3CF8091D3068360CFCF8091D2068E7FB2
:103B2000BBCF8091D306877FC7CF8091D2068D7F90
:103B3000B3CF8091D2068B7FAFCF8091D206877FA3
:103B4000ABCF8091D3068E7FB7CF8091D3068D7F88
:103B5000B3CF8091D2068F7E9FCF8091D2068F7D8A
:103B60009BCF8091D2068F7B97CF0E949D1880912A
:103B7000D2068F7791CF8091D206837F8DCF8091AF
:103B8000D3068C7F99CF8091D20682FB992790F93A
:103B900021E0922790FB82F990FB83F97DCF809101
:103BA000D306982F909591708E7F892B90FB81F989
:103BB00083CF9091D206892F8F7B96FF80646CCF44
:103BC0000E949D189091D206892F97FB87F9805803
:103BD00063CF61E08EE090E00E9414325FCF60E03E
:103BE000F9CF9091D206892F8F7E94FF806154CFB8
:103BF0009091D206892F8E7F90FF81604DCF90915A
:103C0000D306892F877F93FF886056CF85E346CE02
:103C100085E30E941C0E44CE8091CA068272FE018A
:103C2000E052F847E531F10508F0C8CEE950FD4C07
:103C30000C941D318091C20680FF1EC0282F2E7F5C
:103C40002093C2063091C3064091C4065091C50628
:103C50006091C6067091C7068091C8069091C9060A
:103C60000E94E5130E94140D8091C106816080932B
:103C7000C1060E94590A74CE81608093C20661E039
:103C8000869586950E9487166BCE41EE56E165EDCE
:103C900076E10E942F0D64CE45ED56E161EE76E1AE
:103CA000F8CF4DED54E163ED74E1F3CF43ED54E112
:103CB0006DED74E1EECF44EF54E167EE74E1E9CFCE
:103CC00047EE54E164EF74E1E4CF4EE055E161E08A
:103CD00075E1DFCF41E055E16EE075E1DACF45E215
:103CE00054E16BE074E1D5CF4BE054E165E274E15F
:103CF000D0CF61E081E0C6CF65E082E00E94EE16A1
:103D00002FCE68E086E0FACF6EE089E0F7CF64E17D
:103D10008FE0F4CF67E185E1F1CF61E088E1B2CFD8
:103D200062E289E1EBCF61E083E2ACCF6AE285E257
:103D3000E5CFCB359CE7D907B1F0CC35DC4709F0AE
:103D40003DCE8091D30682FB882780F991E08927B8
:103D50000E94101133CE6FEF7FEF80E090E00E9461
:103D600032320E94CE1880E0F3CFC8010E94630671
:103D7000C82F33CE1C2F1F70C03110F01295107F4A
:103D8000DD20B9F0112369F080E28D0F883010F04A
:103D9000D11109C08091CA06812B8093CA060E9466
:103DA00027118D2F40C08091D406812B8093D4069B
:103DB000F6CF8D2F0E946A181123E9F180E28D0F52
:103DC000883010F0D11104C0812F0E94DE0606C099
:103DD00010958091D40681238093D4060E942711E8
:103DE0002AC01C2F1F70C07FC03211F01295107FA7
:103DF000DD2349F0D13009F46BC0DD2009F477C030
:103E0000CC20C9F1CECF8091D30682FD30C0DD2019
:103E100069F0112339F08091CA06812B8093CA067C
:103E20000E94271180E00E94FB1705C080E00E94DD
:103E30006A181111C9CF0023A9F08091D10680FD25
:103E400011C0F70115828695869586950E940B060E
:103E5000C7010E94051C8091D1068695869586959E
:103E60000E941B0660E0C7010E94440989CDDD2045
:103E700099F0C11004C0812F0E947911DCCFF1E0CC
:103E8000CF12D9CF8091CB06912F9823191799F291
:103E9000812B8093CB06CFCFC110CDCF812F0E9435
:103EA00083119091CB06812F8923882329F0812FBC
:103EB000809589238093CB068091CC06912F9823FF
:103EC000992309F4B8CF109518231093CC06B3CFDB
:103ED000DD2029F025E02C1508F4ADCFCCCF34E05F
:103EE0003C1508F4A8CF812F0E948311A4CFCC20C9
:103EF000D1F3D93349F48FEF97EEE3E0815090404E
:103F0000E040E1F700C000008D2F0E946A1893CFB7
:103F10008C2F869586958370882369F0813009F00F
:103F20008ACF8D2F9C2F9370D11002C080E090E03B
:103F30000E94C20D80CF8D2F9C2F9370D11002C094
:103F400080E090E00E949C0D76CF6D2D8D2F0E9419
:103F5000271771CF8C2F8370811142C0D1102FC0D1
:103F60004D2F429546954770440F440F2D2F2F70CB
:103F700030E0042E02C0220F331F0A94E2F780E0E3
:103F800090E0D4FF09C08FE090E002C0880F991F35
:103F90004A95E2F780959095C695C695C370C23054
:103FA000B1F0C33089F04091CD065091CE06C130BA
:103FB00049F0822B932B842395230E9401060E94B3
:103FC0008B0D39CF242B352B822B932BF6CF822BC5
:103FD000932B2091CD063091CE0682279327EDCFEB
:103FE000DD2091F1C0FFEBCF4D2F429546954770F4
:103FF000440F440F2D2F2F7030E0042E02C0220FEB
:10400000331F0A94E2F780E090E0D4FF09C08FE00C
:1040100090E002C0880F991F4A95E2F7809590952D
:10402000C695C695C370C230C1F0C33099F04091B7
:10403000CF065091D006C13059F0822B932B8423A8
:1040400095230E940606BBCF823008F4B8CFCCCFB0
:10405000242B352B822B932BF4CF822B932B209167
:10406000CF063091D00682279327EBCFCF70DD208B
:1040700039F08C2F0E940B068D2F0E9479119FCF53
:104080008D2F0E9483118C2F0E941B0698CFD23F48
:10409000A1F178F4D03FC1F0D13F09F447C0DD2051
:1040A00009F466C0CC2009F460C08D2F0E94FB1774
:1040B00086CFD33F49F1D43FA9F1D110F3CFC1103E
:1040C00065C08C2F8F71E0CFDD20A1F0F4E0FC15EE
:1040D00008F475CFCF7181E090E09C0102C0220FFF
:1040E000331FCA95E2F78091CF069091D0068227C0
:1040F0009327A7CF35E0C316EBCF8C2F8F71D1104C
:10410000C3CF0E940B065BCF80E090E0DD2009F476
:1041100098CFCF7181E090E002C0880F991FCA95B7
:10412000E2F78FCF9091D30692FD06C08C2F8F714E
:10413000DD2009F4A9CFE5CFDD2061F08C2F8F7150
:1041400092FFDFCF98E0899F900111242360209394
:10415000D106D7CF81E00E94A006E1E0EC1508F07F
:104160002ECF82E00E94A0062ACF8C2F8F71C9CF5C
:10417000CC2009F4A6CFD93349F4FFEF27EE33E082
:10418000F15020403040E1F700C000008D2F0E9428
:104190006A1815CFE851FC47E730F10508F05BCC11
:1041A000E45FFC4C0C941D31FE01E851FC47E73004
:1041B000F105B0F3C6318CE7D80709F02DCD809119
:1041C000BE06811125CD89E224CD8091150780316D
:1041D00078F480911407882359F0E091D606209155
:1041E000D5063091100740910F0757E02E1301C0FC
:1041F00008956E2F70E05E9FF0011124DF01A95237
:10420000B94F14968C911497882361F111968C9173
:104210001197831327C08C91841324C015968C9119
:10422000159781111FC012968D919C91A091110735
:10423000B09112078A1B9B0B883C910598F48091E2
:1042400015078F70806180931507E352F94F8081C5
:104250008F70806180838FE097E00E94051C0E9430
:1042600096060895FB013196E770C0CFADE0B0E04F
:10427000ECE3F1E20C94BD308C0186E0F801DE0144
:10428000189601900D928A95E1F7F801E080F5808B
:10429000A280B380C4808FE0882E87E0982E709033
:1042A0001307711020C0CC20D9F0FF2009F419C1E8
:1042B000C8010E947309882309F413C187E0F8013B
:1042C000D40101900D928A95E1F7F1E0CF1206C07A
:1042D00080910F07909110070E9464090E94E520C9
:1042E000FF24F39451C0D09014078091110790914E
:1042F00012079501281B390BDD2009F4BAC0283CB0
:10430000310508F090C0CC2059F390911007C1807E
:1043100080911507803108F058C0C91214C09091DF
:104320000F079E1110C0F1104AC08F7080618093FA
:1043300015078FE097E00E94051C80911507F80192
:104340008683F12C21C0F1103AC040E06C2D8E2DF7
:104350000E94201040E06C2D8E2D0E942010F82E1F
:104360008111EFCF888599850E946409292F2295B4
:104370002F70903470F49F702230A0F09923B1F028
:10438000F8019681903190F48F2D2D96EDE00C94EC
:10439000D9302A5F2F70223068F0C8010E94051CB6
:1043A000FD2CF2CF992311F0882371F3805E8830C1
:1043B00058F3F3CF803F40F3815F8230F9CF809193
:1043C0001507816080931507BCCFC91207C0909173
:1043D0000F079E1103C0FF2009F46CC0C8010E94A2
:1043E0007309882309F47DC0FF2009F47AC0809105
:1043F0001507803278F020910F07309110073A832B
:104400002983BC82AB827D821E828F83CE0101967E
:104410000E94051C87E0F801AFE0B7E001900D9223
:104420008A95E1F75BCF80911507803150F48FE0DA
:1044300097E00E94051C87E0F40111928A95E9F744
:1044400080CFCC2009F44CCF209110079181291303
:10445000C5CF90910F079E11C1CFF110BFCF8683BA
:10446000C8010E94051C87E0F40111928A95E9F7C2
:1044700037CF283C3105F8F6CC2009F431CFFF20A6
:1044800081F1909110078181981321C080910F07CD
:104490008E111DC08091150780FD10C0803170F015
:1044A0008683807F803F39F08681982F907F905F50
:1044B0008F70892B8683C8010E94051C87E0F80154
:1044C000AFE0B7E001900D928A95E1F709CFC801FE
:1044D0000E94730981119ECF80911507816080939E
:1044E0001507C8010E94051CFBCEABE1B0E0EBE76D
:1044F000F2E20C94C7304E8B5F8B688F798F8A8F76
:104500009B8F91111092D4061D8A86E0FE0176964B
:10451000DE011F9601900D928A95E1F78B89882321
:1045200029F061E0CE010F960E94440987E0FE0168
:104530003F96DE01189601900D928A95E1F7CE0123
:1045400008960E94362181112BC087E0FE01389623
:10455000DE01119601900D928A95E1F72091D50622
:104560004091D6068C858823D9F030E0C9010196A8
:104570008770992750E084179507E9F097E0929F9C
:10458000D001939FB00D1124A952B94FFE0131966D
:1045900001900D929A95E1F78093D5060E949606B8
:1045A00017E08091D6069091D506891312C06B96BC
:1045B000E3E00C94E3300E949D181092D50610920F
:1045C000D60687E0EFE0F7E0DF011D928A95E9F774
:1045D000E7CF189FC00111248952994F0E943621BC
:1045E000882329F38091D60690E001968770992759
:1045F0008093D606D6CFA6E0B0E0E1E0F3E20C94DB
:10460000C6300E9454168C0180916C0690916D0604
:104610008017910779F019821A820E945416BC0102
:1046200049815A8180E090E00E94752210936D06C6
:1046300000936C062696E4E00C94E230A7E1B0E02B
:10464000E4E2F3E20C94BB301D861C86FE013E962C
:1046500086E0DF011D928A95E9F780E8E82E81E087
:10466000F82E8E01045F1F4F94E8C92E91E0D92ED9
:104670003801AA24A394B12C3AE8832E31E0932E7A
:10468000F70181917F018F3F09F441C0F894E82F31
:10469000E295EF70F0E021A18F70A50102C0440FF8
:1046A000551F8A95E2F7CA01922F982B91A392A1E8
:1046B0008095892382A3789400C0E4E8F1E031E09A
:1046C000512C21912F3F09F494C0A22FA295AF70D5
:1046D000A05EB0E08C9190E02F7002C09595879518
:1046E0002A95E2F78170811184C0832F582A330FF5
:1046F0008E169F0631F7F701319780818F3F11F0B9
:104700000E949B0950EA5A95F1F7D8015C920F5F1D
:104710001F4FCE14DF0409F0B3CF48E050E0B301DF
:1047200083ED93E00E94DA310091DC0310E00F5139
:104730001C4F892B09F45FC088E0F301A3EDB3E0BF
:1047400001900D928A95E1F781E08093FD010E942E
:1047500054169093FC018093FB0180916A06882394
:1047600009F4A2C01A8219821C821B82809106025F
:104770008A3008F062C046E752E1FE0131967F01BF
:10478000BF01C8010E94D6106701882309F47AC0CE
:104790004CE252E1B701C8010E94D610882309F407
:1047A00071C04AE851E1B701C8010E94D6108823C0
:1047B00009F468C04AE452E1B701C8010E94D6106A
:1047C000882309F45FC0109206028091DB0390E019
:1047D00044E050E0B6018F519C4F0E94DA3121E055
:1047E0002093FA01892B09F03FC06796EFE00C9403
:1047F000D73080E07BCF8091FD01882309F4ADCFD5
:104800008091FB019091FC010E94951B059708F493
:10481000A4CF44E050E063ED73E0C8010E94DA31B8
:10482000892B41F084E0E3EDF3E0D80101900D9293
:104830008A95E1F71092FD0190CF8091F801909157
:10484000F9010E94951B843F914008F094CF80911C
:10485000FA01882351F284E0FE013196DF011D92B6
:104860008A95E9F71092FA01E091DB03F0E0EF514D
:10487000FC4F89819A81AB81BC8180839183A28323
:10488000B383B3CF809106028F3F39F40E94541650
:104890009093F9018093F801DACF8F5F809306023D
:1048A0008A3008F492CFF2CFE090DB03F12CF701CD
:1048B000EF51FC4F7F01F80180819181A281B3818A
:1048C00080934F0690935006A0935106B0935206E2
:1048D0008FE496E00E94750F80934E0680915306F8
:1048E00090915406A0915506B0915606F701808329
:1048F0009183A283B383C0905706D0905806E0906E
:104900005906F0905A068091F4019091F501A0911A
:10491000F601B091F701C816D906EA06FB06B1F018
:10492000C092F401D092F501E092F601F092F70105
:104930000E94490EC61AD70AE80AF90AC09266060A
:10494000D0926706E0926806F09269068BE0EBE58C
:10495000F6E0DE01119601900D928A95E1F78091C3
:104960005B0686958695F0905C06E0905D06D0909B
:104970005E0600916406109165061092650611238B
:1049800009F433CF10FF0BC029819091C20620FF9C
:104990001AC091609093C20660E00E94871611FFD2
:1049A00006C020E04D2D6E2D8F2D0E943F1412FF6A
:1049B00004C00023A9F00E946B1613FF16CF81E0FC
:1049C0008093F80312CF9E7F9093C2060E94140D2D
:1049D0008091C10681608093C1060E94590ADFCF91
:1049E0000E94140DEACFCDB7DEB762970FB6F894E8
:1049F000DEBF0FBECDBF85B7806885BF85B7806835
:104A000085BF84B7877F84BF0FB6F894A89580913F
:104A10006000886180936000109260000FBE80E8A3
:104A200090E00FB6F89480936100909361000FBE00
:104A300089E999E09093CB018093CA010E94560FB7
:104A40000E94C50F8091E20084608093E200789418
:104A50008091E003882399F08091E9001091EC00A7
:104A60001795112717958F70182B1092E9008091D8
:104A7000E80083FD0E94E4181F701093E90082E0B3
:104A800084BD93E095BD9AEF97BD80936E00109220
:104A90006606109267061092680610926906809169
:104AA000D80080618093D8002AE12A95F1F700C0F0
:104AB0008091D90080FFDEC081E080936A06109269
:104AC0006B06109217018BE1809312018093130102
:104AD0000E94412F809117018091170191E0892751
:104AE000880F880F8093DC0394E0981B9093DB037E
:104AF00084E90E949B0986E60E949B0987E90E943F
:104B00009B0986EC0E949B0904E811E05AE8E52E17
:104B100051E0F52ED8018D918D018F3F11F00E944B
:104B20009B09E016F106B1F788E0E1EEF3E0DF0162
:104B3000882E1D928A94E9F7E3EDF3E0DF011D92E0
:104B40008A95E9F780E090E00E94FE31853E9E4F15
:104B500009F461C065EE7EEF80E090E00E943232A1
:104B600060E082E090E00E94143281E090E0909357
:104B7000CE068093CD0661E083E090E00E9414327F
:104B800060E074E184E090E00E94323260E086E010
:104B900090E00E94143260E087E090E00E941432BE
:104BA00040E050E0BA0188E090E00E94263260E0E8
:104BB00083E290E00E94143260E08CE090E00E947A
:104BC000143260E08DE090E00E94143219821A8263
:104BD0001B821C821D821E821F82188648E050E0C4
:104BE00067E170E0CE0101960E94043240E050E09F
:104BF000BA018FE190E00E94263240E050E0BA0115
:104C00008FE090E00E94263240E050E0BA0183E15C
:104C100090E00E94263282E090E00E94F031809382
:104C2000E90384E090E00E94FE319093D3068093E4
:104C3000D2060E941E23EFEFF6E721E0E150F0409C
:104C40002040E1F700C000000E941E23E0916B06A7
:104C500011E0E127EE0FEE0FF0E0EF51FC4F808105
:104C600081FF19C06FEF7FEF80E090E00E94323249
:104C70000E94990E0E94560F1092E00310926A064D
:104C800081E080936B0680931701109212018BE1F3
:104C9000809313011FCF83E090E00E94F03190E0F9
:104CA0000E94010680916A068127880F809325065D
:104CB00080E88093FD030E94C52D6BE070E087E7DC
:104CC00099E00E941B15882309F443C080912506B2
:104CD00065E070E081FDCCC182E799E00E941B1580
:104CE0008823B9F16DE070E080E699E00E941B1521
:104CF000882379F10E94490E69877A878B879C8780
:104D0000DC01CB01805A9541AF4FBF4F80932906FC
:104D100090932A06A0932B06B0932C06E5E2F4E0CC
:104D200080E092E0DF019C011D9221503040E1F7CC
:104D3000F093FC03E093FB038FEF9FEF9093280623
:104D40008093270681E08093300680932D06109291
:104D500026068091DD0381119EC088E090E00E94CC
:104D6000F8316B017C0183E290E00E94F031282F42
:104D700030E040E050E060E070E080E090E000E291
:104D80000E943231F22FA32EB42EB52FA62FE72F7B
:104D90009701860140E050E0BA01FC29A12AB22A1D
:104DA000B32BA42BE52B862B972BF093C206A09256
:104DB000C306B092C406B093C506A093C606E0939E
:104DC000C7068093C8069093C9062091C106236048
:104DD0002093C106F43008F04CC025E02093C206B1
:104DE0001092C3062FEF2093C40628E72093C50630
:104DF0001092C60625E030E04FEF58E760E07E2FC6
:104E00000E94E51388E090E00E94F8316B017C017C
:104E100083E290E00E94F031282F30E040E050E043
:104E200060E070E080E090E000E20E9432315901E1
:104E3000B42FA52FF62FE72F9701860140E050E011
:104E4000BA01AC28B12AB22BA32BF42BE52B862B6D
:104E5000972BA092C206B092C306B093C406A0934B
:104E6000C506F093C606E093C7068093C8069093E4
:104E7000C9060E94440A0E94140D0E94360D8091BA
:104E8000C20680FF05C060E0869586950E94871661
:104E900081E08093DD0380916A06811102C00E9447
:104EA000442F88E191E090938F0680938E06CE0187
:104EB00001964AE0442E512C612C712C898B9A8BDF
:104EC0008091E003853049F48091E003853009F456
:104ED000D2C00E949D180E948B0D0E941E230AEED4
:104EE00013E031EEE32E33E0F32ED701F801919178
:104EF0008D9122EF822E23E0922E8E169F0609F4CA
:104F00000EC19817A1F380906A06D12CD701CD90DD
:104F10007D01F80191908F019C1441F19C24B12CEA
:104F2000AA24A394892D8A218823C1F08820B1F076
:104F3000B982DA820E9454169C838B83F1E0FD8350
:104F400091E08C2D8A21811101C090E09E834981DE
:104F50005A816B817C818D810E947522B394AA0C49
:104F600026E0B212DFCFF8013197C082D39438E047
:104F7000D312CCCF0E94660ED090C006D11028C1AB
:104F8000D0903006D110D8C00E943A1586E0E3EBED
:104F9000F6E0A989BA8901900D928A95E1F7C0904F
:104FA000B4060091B5061091B606E090B706F090F1
:104FB000B8061092B5061092B6061092B706109277
:104FC000B806812F802B882379F080913306909149
:104FD00034060E94951B9C018091B10681113AC351
:104FE0002B30310508F03CC38F2D8E29882379F0B2
:104FF00080913106909132060E94951B9C01809110
:10500000B006811165C32B30310508F067C380916C
:10501000B4068C1116C08091B506882311F0801358
:1050200010C09091B606992311F019130AC020916F
:10503000B806211106C02091B706211102C0892BA4
:1050400081110E94FF1686E0E989FA89A3EBB6E098
:1050500001900D928A95E1F70E948B0D9091350693
:10506000891709F42DCF809335060E94490E28CF69
:105070008DE699E033CE8091E003843031F10E94D7
:1050800028151092DE0348E150E060E40FB6F89472
:10509000A895409360000FBE6093600083B7817F46
:1050A000846083BF83B7816083BF7894889583B71A
:1050B0008E7F83BF0FB6F894A895809160008861B9
:1050C00080936000109260000FBE8091DF03882300
:1050D00009F4FACE0E941E23E1EEF3E089EE93E09C
:1050E0002191211104C08E179F07D1F7EDCE80E1E9
:1050F00089BD82E189BD09B400FEFDCF8091D80051
:105100008F7D8093D8008091E00082608093E000E2
:105110008091E00081FDFCCF0E949D18D5CE9813B0
:10512000F2CE0E94FB22D090C006D11050C08091D8
:105130003006882309F42ACF80912E0690912F06FD
:105140000E94951BC29708F445C30E945416909381
:105150002F0680932E0685E294E09093FC038093C3
:10516000FB0380916A06882309F4ADC180E09AE0D0
:105170000E9419162091CF063091D006832F9927CF
:10518000009709F403C19C0188E0A901B4E0569599
:105190004795BA95E1F74115510511F08C5F9A01D9
:1051A000A9015695479556954795452B09F4F0C0AA
:1051B0008E5FF3E036952795FA95E1F7232B09F4F6
:1051C000F3C0823009F4F6C08FED99E0C4C2D12C4F
:1051D0008091BF06E091C206E695E695E81BE09354
:1051E000F703823009F062C0F0E0ED56F64FE4912B
:1051F0000E2F10E0FBE1EF2EFDE0FF2E8091F80373
:10520000882361F01092F8030E9460169093F603D1
:105210008093F5031092FA031092F9030E9460162E
:105220009C018091F5039091F603A901481B590B4D
:105230004F3F5F4798F54091F4034423B1F010923B
:10524000F4034091F2035091F303241B350B2F3FDD
:105250003F4758F4405D5A485093F3034093F2039C
:105260002091C10628602093C106A090F903B09058
:10527000FA03800F911F9093F6038093F50385EF57
:1052800093E0F70109958091F9039091FA03892B36
:1052900029F4AB2819F081E08093F4038091300663
:1052A00081114ACFDD2009F471CE6ECE08E210E004
:1052B00094ECE92E9BE0F92E883109F49FCFE0F4BD
:1052C0008F3009F440C058F4863031F1893079F1DB
:1052D00000ED17E0E4EBEE2EE9E0FE2E8FCF8531F6
:1052E000B9F7F0E0E957F64FE4910E2F10E044E4EF
:1052F000E42E4BE0F42E82CF843209F440C0853294
:1053000071F1833229F7E5E8F9E00591149132EB68
:10531000E32E3CE0F32E72CFF0E0E057F64FE4913D
:105320000E2F10E074E0E72E7DE0F72E67CFE695B4
:10533000F0E0E357F64FE4910E2F10E062E8E62E1E
:105340006AE0F62E5BCFE695F0E0E657F64FE49183
:105350000E2F10E05DEBE52E5AE0F52E4FCF8E2F8D
:1053600063E00E94EF30E92FF0E0EE57F64FE49152
:105370000E2F10E02BE1E22E23E1F22E3FCF04EFBF
:1053800011E088E5E82E8CE0F82E38CF80E0FDCEE5
:1053900036952795232B09F4D9C18F5F833008F008
:1053A00013CF82EF99E0D7C1823009F00DCF8CEE98
:1053B00099E0D1C185EE99E0CEC19093230180930D
:1053C000220120E2209304044C01A12CB12C8986F7
:1053D0009A86AB86BC861092030473E0E72E74E0D5
:1053E000F72EC501B401A30192010E947A326D87A4
:1053F0007E878F87988B862F805D8D849E84AF8477
:10540000B88800E010E089288A288B2861F562E0DE
:10541000E62E64E0F62E8093020429873A874B87B4
:105420005C8769857A858B859C85A30192010E94A2
:105430007A326D877E878F87988B862F805D2D854A
:105440003E854F85588901E010E0232B242B252B26
:1054500051F480E289849A84AB84BC8489288A28A8
:105460008B2809F080E3D7018E937D0169857A85C9
:105470008B859C85A30192010E947A3229873A8705
:105480004B875C870F5F1F4F0530110509F488C1FA
:10549000CA01B901A30192010E947A326D877E8709
:1054A0008F87988B862F805D8D849E84AF84B8888B
:1054B00081149104A104B104CBCFD8018D918D0149
:1054C0000E9467157BC187E999E00E94191682C185
:1054D0008F5F082F10E04B01082E02C0880C991C2A
:1054E0000A94E2F7A40142235323452B89F39091B8
:1054F000250690FD43C0980136952795369527954A
:10550000922F8295880F80763FE1380F8093260195
:10551000209329013093270190932A0124E630E05B
:1055200047E050E064E271E088E70E94FB2D892BA0
:1055300009F06BC1A80195E0440F551F9A95E1F75A
:105540008091250680FD22C04B5D5B4F04E610E094
:1055500020E230E060E488E70E94932E892B09F076
:1055600054C18094909480912706909128068821B8
:105570009921909328068093270647C1880F880FAA
:10558000880F37E0380F20E093E0C0CFE5E0F4E08B
:1055900080E2DF011D928A95E9F7EEE8F1E0FE87EF
:1055A000ED876AE871E087E0E82EBB24B394ED85CF
:1055B000FE85A191FE87ED87FB018191BF01840FDC
:1055C000952F911D9C012B5D3B4F3A872987EA2F30
:1055D000F0E0EB5FFB4F80E090E0CE2CC81AFB2C94
:1055E000082E01C0FF0C0A94EAF729843A8400E0EF
:1055F000D1011D911D011F212C2D201B277030E092
:10560000B12F022E01C0BB0F0A94EAF73195219504
:1056100031092770332701C016952A95EAF71B2B0D
:105620002081122B10830F5F083011F701963196FD
:105630008830910591F6E2E9F1E02D853E85E2178B
:10564000F30709F0B4CF04E610E020E230E045E0D3
:1056500054E080CF2531310508F4C6CC8F3F19F0D6
:105660008F5F8093B106002359F00E94460D9FEF93
:1056700010160CF491E0899F802D11248093B506BB
:10568000112359F00E94460D91E011160CF09FEF86
:10569000899F802D11248093B6068091B5068823BA
:1056A00009F4A2CCD090B606DD2009F49DCC0E946E
:1056B000380D811101C081E08093B5068D2D0E94C7
:1056C000380D882319F08093B6068ECC81E0FBCF8D
:1056D0002135310508F49BCC8F3F19F08F5F809303
:1056E000B006EE2059F00E94660D9FEF1E140CF4D8
:1056F00091E0899F802D11248093B706FF2059F0F7
:105700000E94660D91E01F140CF09FEF899F802D81
:1057100011248093B8068091B706882309F477CCCA
:10572000F090B806FF2009F472CC0E94380D811168
:1057300001C081E08093B7068F2D0E94380D882329
:1057400019F08093B80663CC81E0FBCF833008F07A
:105750003BCD88EF99E00E9427168091BC06805DC2
:105760000E9467158DED99E00E9419168091BB0685
:10577000805D0E94671589ED99E00E94191680915D
:10578000B9069091BA062091220130912301821727
:10579000930709F012CE20910404203209F00DCEB7
:1057A000EEEFF3E08F0181918032E1F3F801019097
:1057B0000020E9F79F012150310979010E151F05DD
:1057C00008F47BCE87ED99E00E9419168091540170
:1057D0000E9467158091270690912806892BA9F0D1
:1057E00080913006882389F08091260681110DC0B2
:1057F0000E943A15209127063091280680E061E04A
:1058000070E02115310509F064CE80912D068823C2
:1058100009F448CD0E94490E69877A878B879C8757
:105820008091290690912A06A0912B06B0912C0612
:1058300089849A84AB84BC84881A990AAA0ABB0A10
:105840002FEF82169206A2062FE7B20608F02ACDA5
:105850000E94281527CD78941F921FB61F921124FD
:105860008F939F93AF93BF9380914A0690914B067D
:10587000A0914C06B0914D060196A11DB11D8093DB
:105880004A0690934B06A0934C06B0934D06BF91E9
:10589000AF919F918F911F901FBE1F9018951F92DF
:1058A0000F920FB60F9211242F933F934F935F9354
:1058B0006F937F938F939F93AF93BF93EF93FF93D8
:1058C0008091E10082FF09C08091E20082FF05C063
:1058D0008091E1008B7F8093E1008091DA0080FF6E
:1058E00024C08091D80080FF20C08091DA008E7F94
:1058F0008093DA008091D90080FF9BC080E189BD50
:1059000082E189BD09B400FEFDCF81E08093E00310
:1059100080910A02811109C00E94560F0E94C50F92
:105920008091E20084608093E2008091E10080FF3A
:1059300017C08091E20080FF13C08091E2008E7F4B
:105940008093E2008091E20080618093E200809188
:10595000D80080628093D80019BC85E08093E00372
:105960008091E10084FF29C08091E20084FF25C07E
:1059700080E189BD82E189BD09B400FEFDCF80913F
:10598000D8008F7D8093D8008091E1008F7E809336
:10599000E1008091E2008F7E8093E2008091E2003E
:1059A00081608093E20080910902882309F447C056
:1059B00084E08093E0038091E0038091E10083FF25
:1059C00027C08091E20083FF23C08091E100877FA0
:1059D0008093E10082E08093E003109209028091BD
:1059E000E1008E7F8093E1008091E2008E7F8093C2
:1059F000E2008091E20080618093E20042E060E09A
:105A000080E00E948E0F8091F00088608093F0000B
:105A1000FF91EF91BF91AF919F918F917F916F9186
:105A20005F914F913F912F910F900FBE0F901F905C
:105A3000189519BC1092E00310920A0276CF80915B
:105A4000E30087FF02C083E0B4CF81E0B2CF1F92B2
:105A50000F920FB60F921124FF920F931F932F9363
:105A60003F934F935F936F937F938F939F93AF93E6
:105A7000BF93CF93DF93EF93FF9309EE10E0F8010C
:105A80008081C091EC00C795CC27C7958F70FC2E04
:105A9000F82A1082C0EFD0E08881877F88837894CD
:105AA0000E94E418F8011082888188608883CF2DD5
:105AB000CF70C083FF91EF91DF91CF91BF91AF91F4
:105AC0009F918F917F916F915F914F913F912F9116
:105AD0001F910F91FF900F900FBE0F901F90189580
